{
  "abi": [
    {
      "type": "constructor",
      "inputs": [],
      "stateMutability": "nonpayable"
    },
    {
      "type": "function",
      "name": "DOMAIN_SEPARATOR",
      "inputs": [],
      "outputs": [
        {
          "name": "",
          "type": "bytes32",
          "internalType": "bytes32"
        }
      ],
      "stateMutability": "view"
    },
    {
      "type": "function",
      "name": "accumulateGasInUsdc",
      "inputs": [
        {
          "name": "eoa",
          "type": "address",
          "internalType": "address"
        },
        {
          "name": "_gasInEth",
          "type": "uint256",
          "internalType": "uint256"
        }
      ],
      "outputs": [],
      "stateMutability": "nonpayable"
    },
    {
      "type": "function",
      "name": "chgAdmin",
      "inputs": [
        {
          "name": "newAdmin",
          "type": "address",
          "internalType": "address"
        }
      ],
      "outputs": [],
      "stateMutability": "nonpayable"
    },
    {
      "type": "function",
      "name": "eip712Domain",
      "inputs": [],
      "outputs": [
        {
          "name": "fields",
          "type": "bytes1",
          "internalType": "bytes1"
        },
        {
          "name": "name",
          "type": "string",
          "internalType": "string"
        },
        {
          "name": "version",
          "type": "string",
          "internalType": "string"
        },
        {
          "name": "chainId",
          "type": "uint256",
          "internalType": "uint256"
        },
        {
          "name": "verifyingContract",
          "type": "address",
          "internalType": "address"
        },
        {
          "name": "salt",
          "type": "bytes32",
          "internalType": "bytes32"
        },
        {
          "name": "extensions",
          "type": "uint256[]",
          "internalType": "uint256[]"
        }
      ],
      "stateMutability": "view"
    },
    {
      "type": "function",
      "name": "nonces",
      "inputs": [
        {
          "name": "owner",
          "type": "address",
          "internalType": "address"
        }
      ],
      "outputs": [
        {
          "name": "",
          "type": "uint256",
          "internalType": "uint256"
        }
      ],
      "stateMutability": "view"
    },
    {
      "type": "function",
      "name": "permitApprove",
      "inputs": [
        {
          "name": "eoa",
          "type": "address",
          "internalType": "address"
        },
        {
          "name": "nonce",
          "type": "uint256",
          "internalType": "uint256"
        },
        {
          "name": "signature",
          "type": "bytes",
          "internalType": "bytes"
        }
      ],
      "outputs": [],
      "stateMutability": "nonpayable"
    },
    {
      "type": "function",
      "name": "permitApproveAllNFT",
      "inputs": [
        {
          "name": "eoa",
          "type": "address",
          "internalType": "address"
        },
        {
          "name": "nonce",
          "type": "uint256",
          "internalType": "uint256"
        },
        {
          "name": "signature",
          "type": "bytes",
          "internalType": "bytes"
        }
      ],
      "outputs": [],
      "stateMutability": "nonpayable"
    },
    {
      "type": "function",
      "name": "permitApproveNFT",
      "inputs": [
        {
          "name": "eoa",
          "type": "address",
          "internalType": "address"
        },
        {
          "name": "nonce",
          "type": "uint256",
          "internalType": "uint256"
        },
        {
          "name": "signature",
          "type": "bytes",
          "internalType": "bytes"
        }
      ],
      "outputs": [],
      "stateMutability": "nonpayable"
    },
    {
      "type": "function",
      "name": "permitChgOwnerPwd",
      "inputs": [
        {
          "name": "eoa",
          "type": "address",
          "internalType": "address"
        },
        {
          "name": "nonce",
          "type": "uint256",
          "internalType": "uint256"
        },
        {
          "name": "signature",
          "type": "bytes",
          "internalType": "bytes"
        },
        {
          "name": "eoa2",
          "type": "address",
          "internalType": "address"
        },
        {
          "name": "nonce2",
          "type": "uint256",
          "internalType": "uint256"
        },
        {
          "name": "signature2",
          "type": "bytes",
          "internalType": "bytes"
        }
      ],
      "outputs": [],
      "stateMutability": "nonpayable"
    },
    {
      "type": "function",
      "name": "permitMarketSWAP",
      "inputs": [
        {
          "name": "eoa",
          "type": "address",
          "internalType": "address"
        },
        {
          "name": "nonce",
          "type": "uint256",
          "internalType": "uint256"
        },
        {
          "name": "signature",
          "type": "bytes",
          "internalType": "bytes"
        }
      ],
      "outputs": [],
      "stateMutability": "nonpayable"
    },
    {
      "type": "function",
      "name": "permitRegister",
      "inputs": [
        {
          "name": "eoa",
          "type": "address",
          "internalType": "address"
        },
        {
          "name": "nonce",
          "type": "uint256",
          "internalType": "uint256"
        },
        {
          "name": "signature",
          "type": "bytes",
          "internalType": "bytes"
        }
      ],
      "outputs": [],
      "stateMutability": "nonpayable"
    },
    {
      "type": "function",
      "name": "permitTransferETH",
      "inputs": [
        {
          "name": "to",
          "type": "address",
          "internalType": "address"
        },
        {
          "name": "amount",
          "type": "uint256",
          "internalType": "uint256"
        },
        {
          "name": "eoa",
          "type": "address",
          "internalType": "address"
        },
        {
          "name": "nonce",
          "type": "uint256",
          "internalType": "uint256"
        },
        {
          "name": "signature",
          "type": "bytes",
          "internalType": "bytes"
        }
      ],
      "outputs": [],
      "stateMutability": "payable"
    },
    {
      "type": "function",
      "name": "permitTransferNFT",
      "inputs": [
        {
          "name": "eoa",
          "type": "address",
          "internalType": "address"
        },
        {
          "name": "nonce",
          "type": "uint256",
          "internalType": "uint256"
        },
        {
          "name": "signature",
          "type": "bytes",
          "internalType": "bytes"
        }
      ],
      "outputs": [],
      "stateMutability": "nonpayable"
    },
    {
      "type": "function",
      "name": "permitTransferToken",
      "inputs": [
        {
          "name": "token",
          "type": "address",
          "internalType": "address"
        },
        {
          "name": "to",
          "type": "address",
          "internalType": "address"
        },
        {
          "name": "amount",
          "type": "uint256",
          "internalType": "uint256"
        },
        {
          "name": "eoa",
          "type": "address",
          "internalType": "address"
        },
        {
          "name": "nonce",
          "type": "uint256",
          "internalType": "uint256"
        },
        {
          "name": "signature",
          "type": "bytes",
          "internalType": "bytes"
        }
      ],
      "outputs": [],
      "stateMutability": "nonpayable"
    },
    {
      "type": "function",
      "name": "queryContractAddr",
      "inputs": [
        {
          "name": "eoa",
          "type": "address",
          "internalType": "address"
        },
        {
          "name": "nonce",
          "type": "uint256",
          "internalType": "uint256"
        },
        {
          "name": "signature",
          "type": "bytes",
          "internalType": "bytes"
        }
      ],
      "outputs": [
        {
          "name": "",
          "type": "address",
          "internalType": "address"
        }
      ],
      "stateMutability": "view"
    },
    {
      "type": "event",
      "name": "EIP712DomainChanged",
      "inputs": [],
      "anonymous": false
    },
    {
      "type": "error",
      "name": "ECDSAInvalidSignature",
      "inputs": []
    },
    {
      "type": "error",
      "name": "ECDSAInvalidSignatureLength",
      "inputs": [
        {
          "name": "length",
          "type": "uint256",
          "internalType": "uint256"
        }
      ]
    },
    {
      "type": "error",
      "name": "ECDSAInvalidSignatureS",
      "inputs": [
        {
          "name": "s",
          "type": "bytes32",
          "internalType": "bytes32"
        }
      ]
    },
    {
      "type": "error",
      "name": "InvalidAccountNonce",
      "inputs": [
        {
          "name": "account",
          "type": "address",
          "internalType": "address"
        },
        {
          "name": "currentNonce",
          "type": "uint256",
          "internalType": "uint256"
        }
      ]
    },
    {
      "type": "error",
      "name": "InvalidShortString",
      "inputs": []
    },
    {
      "type": "error",
      "name": "StringTooLong",
      "inputs": [
        {
          "name": "str",
          "type": "string",
          "internalType": "string"
        }
      ]
    }
  ],
  "bytecode": {
    "object": "0x61016060409080825234620001b1576200001981620001b6565b600e815260208101906d776562336561737961636365737360901b82528251926200004484620001b6565b6003845260208401620312e360ec1b81526200006083620001d2565b936101209485526200007286620003a5565b93610140948552519020948560e05251902093610100948086524660a05282519060208201927f8b73c3c69bb8fe3d512ecc4cf759cc79239f7b179b0ffacaa9a75d522b39400f84528483015260608201524660808201523060a082015260a0815260c081019060018060401b0392818310848411176200019b57828552815190206080523060c05260018060a01b031992338460055416176005556101b28083019160c08301908582109111176200019b5762001ae2843903906000f08015620001905760018060a01b0316906004541617600455519161158f938462000553853960805184610dfe015260a05184610ec9015260c05184610dc8015260e05184610e4d01525183610e7301525182610266015251816102900152f35b82513d6000823e3d90fd5b634e487b7160e01b600052604160045260246000fd5b600080fd5b604081019081106001600160401b038211176200019b57604052565b8051602091908281101562000271575090601f8251116200021057808251920151908083106200020157501790565b82600019910360031b1b161790565b90604051809263305a27a960e01b82528060048301528251908160248401526000935b82851062000257575050604492506000838284010152601f80199101168101030190fd5b848101820151868601604401529381019385935062000233565b6001600160401b0381116200019b576000928354926001938481811c911680156200039a575b838210146200038657601f811162000350575b5081601f8411600114620002e957509282939183928694620002dd575b50501b916000199060031b1c191617905560ff90565b015192503880620002c7565b919083601f1981168780528488209488905b888383106200033557505050106200031b575b505050811b01905560ff90565b015160001960f88460031b161c191690553880806200030e565b858701518855909601959485019487935090810190620002fb565b85805284601f848820920160051c820191601f860160051c015b8281106200037a575050620002aa565b8781550185906200036a565b634e487b7160e01b86526022600452602486fd5b90607f169062000297565b805160209081811015620004335750601f825111620003d257808251920151908083106200020157501790565b90604051809263305a27a960e01b82528060048301528251908160248401526000935b82851062000419575050604492506000838284010152601f80199101168101030190fd5b8481018201518686016044015293810193859350620003f5565b9192916001600160401b0381116200019b5760019182548381811c9116801562000547575b828210146200053157601f8111620004f8575b5080601f8311600114620004ab5750819293946000926200049f575b5050600019600383901b1c191690821b17905560ff90565b01519050388062000487565b90601f198316958460005282600020926000905b888210620004e057505083859697106200031b57505050811b01905560ff90565b808785968294968601518155019501930190620004bf565b8360005283601f83600020920160051c820191601f850160051c015b828110620005245750506200046b565b6000815501849062000514565b634e487b7160e01b600052602260045260246000fd5b90607f16906200045856fe6040608081526004908136101561001557600080fd5b600091823560e01c806307951ec1146109715780630bebd8d514610231578063144915dd146108195780631ff2618b146107175780633644e515146106f35780634562df39146105295780634b447502146102315780634fa50a5e1461042f57806350c15320146103a95780637dd1ccc9146102315780637ecebe001461036d57806384b0196e1461024f578063ae31bf9414610231578063bd801827146102315763e3be05f2146100c657600080fd5b3461022d5760c036600319011261022d576100df6109ba565b916024356001600160a01b03818116918290036102285785946101006109d0565b60a4356001600160401b03811161022457858461019661018d61018761012c8c61019d973691016109e6565b919061013d86600554163314610a99565b61017f8751998760208c019160008051602061153a8339815191528352169a8b809a82015260843560608201526060815261017781610aff565b519020610eef565b923691610b56565b90610c74565b90929192610d40565b1614610b9c565b80875260036020526101b58386892054161515610bd6565b8652600360205281848720541690813b156102205786606492819587519889968795637aa9bf6f60e11b87521690850152602484015260443560448401525af190811561021757506102045750f35b61020d90610ad6565b6102145780f35b80fd5b513d84823e3d90fd5b8680fd5b8780fd5b600080fd5b8280fd5b83346102145761024c61024336610a13565b92919091610c14565b80f35b50903461022d578260031936011261022d5761028a7f0000000000000000000000000000000000000000000000000000000000000000610f15565b926102b47f000000000000000000000000000000000000000000000000000000000000000061103b565b90825192602092838501958587106001600160401b038811176103585750928061030e838896610301998b9996528686528151998a99600f60f81b8b5260e0868c015260e08b0190610a59565b91898303908a0152610a59565b924660608801523060808801528460a088015286840360c088015251928381520193925b82811061034157505050500390f35b835185528695509381019392810192600101610332565b604190634e487b7160e01b6000525260246000fd5b5050346103a55760203660031901126103a55760209181906001600160a01b036103956109ba565b1681526002845220549051908152f35b5080fd5b5050346103a55761017f8160209361018d61041f836101876101966103cd36610a13565b919792949060018060a01b039b8c966103eb88600554163314610a99565b88516020899082019260008051602061153a8339815191528452169b8c809b83015260608201526060815261017781610aff565b8152600385522054169051908152f35b503461022d578161017f916104a161018d9461018761019661045036610a13565b919a92949060018060a01b039a8b9661046e88600554163314610a99565b885188602082019260008051602061153a8339815191528452169e8f809b83015260608201526060815261017781610aff565b8385526003602052828286205416156104b8578480f35b81519061042b808301918383106001600160401b03841117610516575090829161110f8339039085f092831561050c5784526003602052832091166001600160601b0360a01b825416179055388080808480f35b81513d86823e3d90fd5b634e487b7160e01b885260419052602487fd5b50903461022d5760c036600319011261022d576105446109ba565b916001600160401b036044358181116106ef5761056490369084016109e6565b61056f9391936109d0565b9060a43593841161022457859361058990369085016109e6565b90600160a01b6001900395868094816005541633146105a790610a99565b82519960208b018360008051602061153a8339815191529e8f8352169b8c80968201526024356060820152606081526105df81610aff565b5190206105eb90610eef565b9136906105f792610b56565b61060091610c74565b61060991610d40565b161461061490610b9c565b868a52600360205282888b205416151561062d90610bd6565b82885194602086019a8b521698848a8a8197015260843560608201526060815261065681610aff565b51902061066290610eef565b91369061066e92610b56565b61067791610c74565b61068091610d40565b16036106ba5750818552600360205282852054169284528184206001600160601b0360a01b93848254161790558352822090815416905580f35b606490602085519162461bcd60e51b8352820152600f60248201526e7369676e206572726f72203232202160881b6044820152fd5b8580fd5b5050346103a557816003193601126103a557602090610710610dc5565b9051908152f35b5060a036600319011261022d5761072c6109ba565b6044356001600160a01b038181169492918590036102285785946084356001600160401b03811161022057818361019661018d6101876107726107b89636908d016109e6565b919061078386600554163314610a99565b61017f8c805189602082019260008051602061153a833981519152845282015260643560608201526060815261017781610aff565b80865260036020526107d08285882054161515610bd6565b85526003602052808386205416803b156106ef5785928360449286519788958694637b1a490960e01b8652169084015260243560248401525af190811561021757506102045750f35b50903461022d578060031936011261022d576108336109ba565b6005546001600160a01b0391602435918316330361093c578216855260036020528183862054169081610864578580f35b60208593845416855194858092638c3c9a5560e01b82525afa9283156109325786936108ff575b508281029281840414901517156108ec57908185923b1561022d576305f5e100918360249286519788958694634464e48760e11b865204908401525af190811561021757506108dd575b808080808580f35b6108e690610ad6565b386108d5565b634e487b7160e01b855260118452602485fd5b9092506020813d821161092a575b8161091a60209383610b35565b810103126106ef5751913861088b565b3d915061090d565b84513d88823e3d90fd5b835162461bcd60e51b8152602081870152600f60248201526e6d7573742062652061646d696e322160881b6044820152606490fd5b83346102145760203660031901126102145761098b6109ba565b600554906001600160a01b03906109a53383851614610a99565b16906001600160601b0360a01b161760055580f35b600435906001600160a01b038216820361022857565b606435906001600160a01b038216820361022857565b9181601f84011215610228578235916001600160401b038311610228576020838186019501011161022857565b6060600319820112610228576004356001600160a01b0381168103610228579160243591604435906001600160401b03821161022857610a55916004016109e6565b9091565b919082519283825260005b848110610a85575050826000602080949584010152601f8019910116010190565b602081830181015184830182015201610a64565b15610aa057565b60405162461bcd60e51b815260206004820152600e60248201526d6d7573742062652061646d696e2160901b6044820152606490fd5b6001600160401b038111610ae957604052565b634e487b7160e01b600052604160045260246000fd5b608081019081106001600160401b03821117610ae957604052565b604081019081106001600160401b03821117610ae957604052565b90601f801991011681019081106001600160401b03821117610ae957604052565b9291926001600160401b038211610ae95760405191610b7f601f8201601f191660200184610b35565b829481845281830111610228578281602093846000960137010152565b15610ba357565b60405162461bcd60e51b815260206004820152600b60248201526a7369676e206572726f722160a81b6044820152606490fd5b15610bdd57565b60405162461bcd60e51b815260206004820152600f60248201526e6e6f7420726567697374657265642160881b6044820152606490fd5b909161018d610c72946101876101969361017f60018060a01b0396610c3e88600554163314610a99565b60405188602082019260008051602061153a833981519152845216998a604083015260608201526060815261017781610aff565b565b8151919060418303610ca557610c9e92506020820151906060604084015193015160001a90610cb0565b9192909190565b505060009160029190565b91907f7fffffffffffffffffffffffffffffff5d576e7357a4501ddfe92f46681b20a08411610d3457926020929160ff608095604051948552168484015260408301526060820152600092839182805260015afa15610d285780516001600160a01b03811615610d1f57918190565b50809160019190565b604051903d90823e3d90fd5b50505060009160039190565b6004811015610daf5780610d52575050565b60018103610d6c5760405163f645eedf60e01b8152600490fd5b60028103610d8d5760405163fce698f760e01b815260048101839052602490fd5b600314610d975750565b602490604051906335e2f38360e21b82526004820152fd5b634e487b7160e01b600052602160045260246000fd5b307f00000000000000000000000000000000000000000000000000000000000000006001600160a01b03161480610ec6575b15610e20577f000000000000000000000000000000000000000000000000000000000000000090565b60405160208101907f8b73c3c69bb8fe3d512ecc4cf759cc79239f7b179b0ffacaa9a75d522b39400f82527f000000000000000000000000000000000000000000000000000000000000000060408201527f000000000000000000000000000000000000000000000000000000000000000060608201524660808201523060a082015260a0815260c081018181106001600160401b03821117610ae95760405251902090565b507f00000000000000000000000000000000000000000000000000000000000000004614610df7565b604290610efa610dc5565b906040519161190160f01b8352600283015260228201522090565b60ff8114610f535760ff811690601f8211610f415760405191610f3783610b1a565b8252602082015290565b604051632cd44ac360e21b8152600490fd5b506040516000805490600182811c90808416938415611031575b602094858410811461101d5783875286949392918115610ffd5750600114610fa1575b5050610f9e92500382610b35565b90565b60008080527f290decd9548b62a8d60345a988386fc84ba6bc95484008f6362f93160ef3e56395935091905b818310610fe5575050610f9e93508201013880610f90565b85548784018501529485019486945091830191610fcd565b915050610f9e94925060ff191682840152151560051b8201013880610f90565b634e487b7160e01b85526022600452602485fd5b91607f1691610f6d565b60ff811461105d5760ff811690601f8211610f415760405191610f3783610b1a565b50604051600060019081549182811c90808416938415611104575b602094858410811461101d5783875286949392918115610ffd57506001146110a8575050610f9e92500382610b35565b60008181527fb10e2d527612073b26eecdfd717e6a320cf44b4afac2b0732d9fcbe2b7fa0cf695935091905b8183106110ec575050610f9e93508201013880610f90565b855487840185015294850194869450918301916110d4565b91607f169161107856fe6080806040523461002857600180546001600160a01b031916331790556103fd908161002e8239f35b600080fdfe6080604081815260049081361015610022575b505050361561002057600080fd5b005b600092833560e01c9081631a075e15146103065781631ba3924e146102ec57508063280e2306146102c15780634bc1dd7e146102c15780636e11fb1b146102a45780637b1a49091461020f57806388c9c90e146101c35763f5537ede0361001257346101bf5761009136610346565b6001549093926001600160a01b039291831633036101bb5782168351946370a0823160e01b865230878701526020958681602481865afa9081156101b1578991610180575b5081116101545791876044928795948751998a96879563a9059cbb60e01b8752169085015260248401525af190811561014b5750610112578280f35b81813d8311610144575b610126818361037b565b8101031261014057518015150361013d5738808280f35b80fd5b5080fd5b503d61011c565b513d85823e3d90fd5b845162461bcd60e51b81528088018790526006602482015265103c3c3c101960d11b6044820152606490fd5b90508681813d83116101aa575b610197818361037b565b810103126101a65751386100d6565b8880fd5b503d61018d565b86513d8b823e3d90fd5b8680fd5b8280fd5b505034610140576020366003190112610140576001546001600160a01b0316330361014057815490803582018092116101fc5750815580f35b634e487b7160e01b835260119052602482fd5b5090816003193601126101bf57610224610315565b600154602435926001600160a01b0391821633036102a0574784116102745750848093819382938391831561026a575b1690f115610260575080f35b51903d90823e3d90fd5b6108fc9250610254565b606490602086519162461bcd60e51b8352820152600660248201526520787878203160d01b6044820152fd5b8580fd5b833461013d576102b336610346565b5050506102be6103b3565b80f35b8382346101405736600319011261013d576102da610315565b506102e3610330565b506102be6103b3565b849034610140578160031936011261014057602091548152f35b843461013d576102b336610346565b600435906001600160a01b038216820361032b57565b600080fd5b602435906001600160a01b038216820361032b57565b606090600319011261032b576001600160a01b0390600435828116810361032b5791602435908116810361032b579060443590565b90601f8019910116810190811067ffffffffffffffff82111761039d57604052565b634e487b7160e01b600052604160045260246000fd5b6001546001600160a01b0316330361032b5756fea26469706673582212201f32a1ea1d6de2676c8eb58d788b9626e03a341fddb1bb1f200ee552e58740de64736f6c63430008140033fdf8bcc3ff8fb6d47a22b87e38f4decd36ea1d6d99dc87e524adfaac8cd29afda2646970667358221220bdceaa451f1aee33f89521ddde40d87b3c62fbb10732464bceba889a973b190864736f6c634300081400336080806040523461003c57600080546001600160a01b03191673694aa1769357215de4fac081bf1f309adc32530617905561017090816100428239f35b600080fdfe6080604052600436101561001257600080fd5b6000803560e01c638c3c9a551461002857600080fd5b3461004a578060031936011261004a576020610042610069565b604051908152f35b80fd5b519069ffffffffffffffffffff8216820361006457565b600080fd5b60008054604051633fabe5a360e21b8152919060a090839060049082906001600160a01b03165afa91821561012d5781926100b1575b50808213156100ac575090565b905090565b90915060a03d8111610126575b601f8101601f1916820167ffffffffffffffff8111838210176101125760a09183916040528101031261010e576100f48161004d565b5061010660806020830151920161004d565b50903861009f565b5080fd5b634e487b7160e01b84526041600452602484fd5b503d6100be565b50604051903d90823e3d90fdfea2646970667358221220c916f41ae7d0e5522cb3755841d92ac31d0b55a4071f98c1d5afd9ccd64b0afc64736f6c63430008140033",
    "linkReferences": {}
  },
  "methodIdentifiers": {
    "DOMAIN_SEPARATOR()": "3644e515",
    "accumulateGasInUsdc(address,uint256)": "144915dd",
    "chgAdmin(address)": "07951ec1",
    "eip712Domain()": "84b0196e",
    "nonces(address)": "7ecebe00",
    "permitApprove(address,uint256,bytes)": "0bebd8d5",
    "permitApproveAllNFT(address,uint256,bytes)": "bd801827",
    "permitApproveNFT(address,uint256,bytes)": "4b447502",
    "permitChgOwnerPwd(address,uint256,bytes,address,uint256,bytes)": "4562df39",
    "permitMarketSWAP(address,uint256,bytes)": "ae31bf94",
    "permitRegister(address,uint256,bytes)": "4fa50a5e",
    "permitTransferETH(address,uint256,address,uint256,bytes)": "1ff2618b",
    "permitTransferNFT(address,uint256,bytes)": "7dd1ccc9",
    "permitTransferToken(address,address,uint256,address,uint256,bytes)": "e3be05f2",
    "queryContractAddr(address,uint256,bytes)": "50c15320"
  },
  "id": 1
}