{
  "abi": [
    {
      "type": "constructor",
      "inputs": [],
      "stateMutability": "nonpayable"
    },
    {
      "type": "function",
      "name": "chgAdmin",
      "inputs": [
        {
          "name": "newAdmin",
          "type": "address",
          "internalType": "address"
        }
      ],
      "outputs": [],
      "stateMutability": "nonpayable"
    },
    {
      "type": "function",
      "name": "eip712Domain",
      "inputs": [],
      "outputs": [
        {
          "name": "fields",
          "type": "bytes1",
          "internalType": "bytes1"
        },
        {
          "name": "name",
          "type": "string",
          "internalType": "string"
        },
        {
          "name": "version",
          "type": "string",
          "internalType": "string"
        },
        {
          "name": "chainId",
          "type": "uint256",
          "internalType": "uint256"
        },
        {
          "name": "verifyingContract",
          "type": "address",
          "internalType": "address"
        },
        {
          "name": "salt",
          "type": "bytes32",
          "internalType": "bytes32"
        },
        {
          "name": "extensions",
          "type": "uint256[]",
          "internalType": "uint256[]"
        }
      ],
      "stateMutability": "view"
    },
    {
      "type": "function",
      "name": "nonces",
      "inputs": [
        {
          "name": "owner",
          "type": "address",
          "internalType": "address"
        }
      ],
      "outputs": [
        {
          "name": "",
          "type": "uint256",
          "internalType": "uint256"
        }
      ],
      "stateMutability": "view"
    },
    {
      "type": "function",
      "name": "permitApprove",
      "inputs": [
        {
          "name": "eoa",
          "type": "address",
          "internalType": "address"
        },
        {
          "name": "nonce",
          "type": "uint256",
          "internalType": "uint256"
        },
        {
          "name": "signature",
          "type": "bytes",
          "internalType": "bytes"
        }
      ],
      "outputs": [],
      "stateMutability": "nonpayable"
    },
    {
      "type": "function",
      "name": "permitApproveAllNFT",
      "inputs": [
        {
          "name": "eoa",
          "type": "address",
          "internalType": "address"
        },
        {
          "name": "nonce",
          "type": "uint256",
          "internalType": "uint256"
        },
        {
          "name": "signature",
          "type": "bytes",
          "internalType": "bytes"
        }
      ],
      "outputs": [],
      "stateMutability": "nonpayable"
    },
    {
      "type": "function",
      "name": "permitApproveNFT",
      "inputs": [
        {
          "name": "eoa",
          "type": "address",
          "internalType": "address"
        },
        {
          "name": "nonce",
          "type": "uint256",
          "internalType": "uint256"
        },
        {
          "name": "signature",
          "type": "bytes",
          "internalType": "bytes"
        }
      ],
      "outputs": [],
      "stateMutability": "nonpayable"
    },
    {
      "type": "function",
      "name": "permitChgOwnerPwd",
      "inputs": [
        {
          "name": "eoa",
          "type": "address",
          "internalType": "address"
        },
        {
          "name": "nonce",
          "type": "uint256",
          "internalType": "uint256"
        },
        {
          "name": "signature",
          "type": "bytes",
          "internalType": "bytes"
        },
        {
          "name": "eoa2",
          "type": "address",
          "internalType": "address"
        },
        {
          "name": "nonce2",
          "type": "uint256",
          "internalType": "uint256"
        },
        {
          "name": "signature2",
          "type": "bytes",
          "internalType": "bytes"
        }
      ],
      "outputs": [],
      "stateMutability": "nonpayable"
    },
    {
      "type": "function",
      "name": "permitMarketSWAP",
      "inputs": [
        {
          "name": "eoa",
          "type": "address",
          "internalType": "address"
        },
        {
          "name": "nonce",
          "type": "uint256",
          "internalType": "uint256"
        },
        {
          "name": "signature",
          "type": "bytes",
          "internalType": "bytes"
        }
      ],
      "outputs": [],
      "stateMutability": "nonpayable"
    },
    {
      "type": "function",
      "name": "permitRegister",
      "inputs": [
        {
          "name": "eoa",
          "type": "address",
          "internalType": "address"
        },
        {
          "name": "nonce",
          "type": "uint256",
          "internalType": "uint256"
        },
        {
          "name": "signature",
          "type": "bytes",
          "internalType": "bytes"
        }
      ],
      "outputs": [],
      "stateMutability": "nonpayable"
    },
    {
      "type": "function",
      "name": "permitTransferETH",
      "inputs": [
        {
          "name": "to",
          "type": "address",
          "internalType": "address"
        },
        {
          "name": "amount",
          "type": "uint256",
          "internalType": "uint256"
        },
        {
          "name": "eoa",
          "type": "address",
          "internalType": "address"
        },
        {
          "name": "nonce",
          "type": "uint256",
          "internalType": "uint256"
        },
        {
          "name": "signature",
          "type": "bytes",
          "internalType": "bytes"
        }
      ],
      "outputs": [],
      "stateMutability": "nonpayable"
    },
    {
      "type": "function",
      "name": "permitTransferNFT",
      "inputs": [
        {
          "name": "eoa",
          "type": "address",
          "internalType": "address"
        },
        {
          "name": "nonce",
          "type": "uint256",
          "internalType": "uint256"
        },
        {
          "name": "signature",
          "type": "bytes",
          "internalType": "bytes"
        }
      ],
      "outputs": [],
      "stateMutability": "nonpayable"
    },
    {
      "type": "function",
      "name": "permitTransferToken",
      "inputs": [
        {
          "name": "token",
          "type": "address",
          "internalType": "address"
        },
        {
          "name": "to",
          "type": "address",
          "internalType": "address"
        },
        {
          "name": "amount",
          "type": "uint256",
          "internalType": "uint256"
        },
        {
          "name": "eoa",
          "type": "address",
          "internalType": "address"
        },
        {
          "name": "nonce",
          "type": "uint256",
          "internalType": "uint256"
        },
        {
          "name": "signature",
          "type": "bytes",
          "internalType": "bytes"
        }
      ],
      "outputs": [],
      "stateMutability": "nonpayable"
    },
    {
      "type": "function",
      "name": "queryContractAddr",
      "inputs": [
        {
          "name": "eoa",
          "type": "address",
          "internalType": "address"
        },
        {
          "name": "nonce",
          "type": "uint256",
          "internalType": "uint256"
        },
        {
          "name": "signature",
          "type": "bytes",
          "internalType": "bytes"
        }
      ],
      "outputs": [
        {
          "name": "",
          "type": "address",
          "internalType": "address"
        }
      ],
      "stateMutability": "nonpayable"
    },
    {
      "type": "event",
      "name": "EIP712DomainChanged",
      "inputs": [],
      "anonymous": false
    },
    {
      "type": "event",
      "name": "MSG",
      "inputs": [
        {
          "name": "",
          "type": "address",
          "indexed": false,
          "internalType": "address"
        },
        {
          "name": "",
          "type": "bytes32",
          "indexed": false,
          "internalType": "bytes32"
        }
      ],
      "anonymous": false
    },
    {
      "type": "event",
      "name": "MSG2",
      "inputs": [
        {
          "name": "",
          "type": "address",
          "indexed": false,
          "internalType": "address"
        },
        {
          "name": "",
          "type": "uint256",
          "indexed": false,
          "internalType": "uint256"
        },
        {
          "name": "",
          "type": "bytes",
          "indexed": false,
          "internalType": "bytes"
        }
      ],
      "anonymous": false
    },
    {
      "type": "error",
      "name": "ECDSAInvalidSignature",
      "inputs": []
    },
    {
      "type": "error",
      "name": "ECDSAInvalidSignatureLength",
      "inputs": [
        {
          "name": "length",
          "type": "uint256",
          "internalType": "uint256"
        }
      ]
    },
    {
      "type": "error",
      "name": "ECDSAInvalidSignatureS",
      "inputs": [
        {
          "name": "s",
          "type": "bytes32",
          "internalType": "bytes32"
        }
      ]
    },
    {
      "type": "error",
      "name": "InvalidAccountNonce",
      "inputs": [
        {
          "name": "account",
          "type": "address",
          "internalType": "address"
        },
        {
          "name": "currentNonce",
          "type": "uint256",
          "internalType": "uint256"
        }
      ]
    },
    {
      "type": "error",
      "name": "InvalidShortString",
      "inputs": []
    },
    {
      "type": "error",
      "name": "PermitFail",
      "inputs": [
        {
          "name": "",
          "type": "address",
          "internalType": "address"
        }
      ]
    },
    {
      "type": "error",
      "name": "StringTooLong",
      "inputs": [
        {
          "name": "str",
          "type": "string",
          "internalType": "string"
        }
      ]
    }
  ],
  "bytecode": {
    "object": "0x610160806040523461015d5761001481610162565b600e8152602081016d776562336561737961636365737360901b81526040519161003d83610162565b6003835260208301620312e360ec1b81526100578261017d565b926101209384526100678561033c565b92610140938452519020938460e05251902091610100938385524660a0526040519360208501917f8b73c3c69bb8fe3d512ecc4cf759cc79239f7b179b0ffacaa9a75d522b39400f8352604086015260608501524660808501523060a085015260a0845260c084019380851060018060401b038611176101475760408590525190206080523060c052600480546001600160a01b031916331790556111e593846104d7853960805184610d0e015260a05184610dda015260c05184610cd8015260e05184610d5d01525183610d83015251826102c5015251816102ef0152f35b634e487b7160e01b600052604160045260246000fd5b600080fd5b604081019081106001600160401b0382111761014757604052565b80516020919082811015610217575090601f8251116101b857808251920151908083106101a957501790565b82600019910360031b1b161790565b90604051809263305a27a960e01b82528060048301528251908160248401526000935b8285106101fe575050604492506000838284010152601f80199101168101030190fd5b84810182015186860160440152938101938593506101db565b6001600160401b038111610147576000928354926001938481811c91168015610332575b8382101461031e57601f81116102eb575b5081601f84116001146102885750928293918392869461027d575b50501b916000199060031b1c191617905560ff90565b015192503880610267565b919083601f1981168780528488209488905b888383106102d157505050106102b8575b505050811b01905560ff90565b015160001960f88460031b161c191690553880806102ab565b85870151885590960195948501948793509081019061029a565b85805284601f848820920160051c820191601f860160051c015b82811061031357505061024c565b878155018590610305565b634e487b7160e01b86526022600452602486fd5b90607f169061023b565b8051602090818110156103c55750601f82511161036657808251920151908083106101a957501790565b90604051809263305a27a960e01b82528060048301528251908160248401526000935b8285106103ac575050604492506000838284010152601f80199101168101030190fd5b8481018201518686016044015293810193859350610389565b9192916001600160401b0381116101475760019182548381811c911680156104cc575b828210146104b657601f8111610480575b5080601f831160011461043657508192939460009261042b575b5050600019600383901b1c191690821b17905560ff90565b015190503880610413565b90601f198316958460005282600020926000905b88821061046957505083859697106102b857505050811b01905560ff90565b80878596829496860151815501950193019061044a565b8360005283601f83600020920160051c820191601f850160051c015b8281106104aa5750506103f9565b6000815501849061049c565b634e487b7160e01b600052602260045260246000fd5b90607f16906103e856fe6040608081526004908136101561001557600080fd5b600091823560e01c806307951ec11461098e5780630bebd8d5146102905780631ff2618b1461086b5780634562df391461064f5780634b447502146102905780634fa50a5e146104fd57806350c153201461040b5780637dd1ccc9146102905780637ecebe00146103cf57806384b0196e146102ae578063ae31bf9414610290578063bd801827146102905763e3be05f2146100b057600080fd5b3461028c5760c036600319011261028c576100c96109db565b916024356001600160a01b03818116918290036102875785946100ea6109f1565b60a4359067ffffffffffffffff8211610283576101c76101e06101d76101d18a8861012861011c8d9936908501610a07565b92909354163314610abc565b8751602081019060008051602061117083398151915282528b8916809a82015260843560608201526060815261015d81610b23565b5190208c516001600160a01b0389168152602081018290526000805160206111908339815191529889928f926101a69190859080604081015b0390a16101a1610cd5565b610e00565b91516001600160a01b03909116815260208101829052909781906040820190565b0390a13691610b7d565b83610e1d565b90929192610e59565b87516001600160a01b039190911681526020810191909152604090a180875260036020526102148386892054161515610c97565b8652600360205281848720541690813b1561027f5786606492819587519889968795637aa9bf6f60e11b87521690850152602484015260443560448401525af190811561027657506102635750f35b61026c90610af9565b6102735780f35b80fd5b513d84823e3d90fd5b8680fd5b8780fd5b600080fd5b8280fd5b8334610273576102ab6102a236610a35565b92919091610bc4565b80f35b50903461028c578260031936011261028c576102e97f0000000000000000000000000000000000000000000000000000000000000000610ede565b926103137f0000000000000000000000000000000000000000000000000000000000000000611006565b90825192602092602085019585871067ffffffffffffffff8811176103ba5750926020610370838896610363998b9996528686528151998a99600f60f81b8b5260e0868c015260e08b0190610a7c565b91898303908a0152610a7c565b924660608801523060808801528460a088015286840360c088015251928381520193925b8281106103a357505050500390f35b835185528695509381019392810192600101610394565b604190634e487b7160e01b6000525260246000fd5b5050346104075760203660031901126104075760209181906001600160a01b036103f76109db565b1681526002845220549051908152f35b5080fd5b503461028c57816020936101d16104d16101d761042736610a35565b94929391959061044260018060a01b03809b54163314610abc565b88518c81019060008051602061117083398151915282528b871698898c83015260608201526060815261047481610b23565b51902089516001600160a01b038716815260208101829052600080516020611190833981519152979188916104b0919083908060408101610196565b8b516001600160a01b039098168852602088018190529680604081016101c7565b85516001600160a01b039190911681526020810191909152604090a18152600385522054169051908152f35b503461028c577f8d72789f94216f6a9bc787492b7c8449336e993ab7534dd5dc64ef0bcbda32a5608061052f36610a35565b90939261054760018060a01b03809854163314610abc565b87519660208801906000805160206111708339815191528252821697888a8201528460608201526060815261057b81610b23565b51902088516001600160a01b038316815260208101829052600080516020611190833981519152929183916105b7919083908060408101610196565b8a516001600160a01b039390931683526020830181905291604090a16105e46101d76101d136868a610b7d565b89516001600160a01b039190911681526020810191909152604090a18087519485938885526020850152606089850152816060850152848401378181018301889052601f01601f19168101030190a182526003602052812080546001600160a01b0319163017905580f35b50903461028c5760c036600319011261028c5761066a6109db565b67ffffffffffffffff906044358281116108675761068b9036908601610a07565b9490926106966109f1565b9060a435908111610283576106ae9036908401610a07565b83546001600160a01b03958693916106c99085163314610abc565b8880519860208a019b6000805160206111708339815191529c8d81528785169b8c8582015260243560608201526060815261070381610b23565b51902083516001600160a01b03861681526020810182905260008051602061119083398151915295869290918390604090a161073d610cd5565b9061074791610e00565b94516001600160a01b0391909116815260208101859052604090a1369061076d92610b7d565b6107779082610e1d565b61078391939293610e59565b8a516001600160a01b039290921682526020820152604090a1868a52600360205282888b20541615156107b590610c97565b82885194602086019a8b521698848a8a819701526084356060820152606081526107de81610b23565b5190206107e9610cd5565b906107f391610e00565b9136906107ff92610b7d565b61080891610e1d565b61081191610e59565b16036108505750818552600360205282852054169284528184206bffffffffffffffffffffffff60a01b93848254161790558352822090815416905580f35b83516384c810db60e01b8152908101859052602490fd5b8580fd5b50903461028c5760a036600319011261028c57826108876109db565b6001600160a01b03906044358281169081810361098a5760843567ffffffffffffffff8111610867576109006101d76101d18a886108ce61011c6101c79736908501610a07565b8b8051896020820192600080516020611170833981519152845282015260643560608201526060815261015d81610b23565b87516001600160a01b039190911681526020810191909152604090a180845260036020526109348386862054161515610c97565b8352600360205281848420541690813b15610986578360449286519788958694637b1a490960e01b8652169084015260243560248401525af1908115610276575061097d575080f35b6102ab90610af9565b8380fd5b8480fd5b838234610407576020366003190112610407576109a96109db565b8154906001600160a01b03906109c23383851614610abc565b16906bffffffffffffffffffffffff60a01b1617905580f35b600435906001600160a01b038216820361028757565b606435906001600160a01b038216820361028757565b9181601f840112156102875782359167ffffffffffffffff8311610287576020838186019501011161028757565b6060600319820112610287576004356001600160a01b03811681036102875791602435916044359067ffffffffffffffff821161028757610a7891600401610a07565b9091565b919082519283825260005b848110610aa8575050826000602080949584010152601f8019910116010190565b602081830181015184830182015201610a87565b15610ac357565b60405162461bcd60e51b815260206004820152600e60248201526d6d7573742062652061646d696e2160901b6044820152606490fd5b67ffffffffffffffff8111610b0d57604052565b634e487b7160e01b600052604160045260246000fd5b6080810190811067ffffffffffffffff821117610b0d57604052565b6040810190811067ffffffffffffffff821117610b0d57604052565b90601f8019910116810190811067ffffffffffffffff821117610b0d57604052565b92919267ffffffffffffffff8211610b0d5760405191610ba7601f8201601f191660200184610b5b565b829481845281830111610287578281602093846000960137010152565b916101d16101d791610c7a9360018060a01b0390610be782600454163314610abc565b604051906020820192600080516020611170833981519152845288166040830152606082015260608152610c1a81610b23565b519020604080516001600160a01b03881681526020810183905260008051602061119083398151915298928992610c5692849181908101610196565b604080516001600160a01b03909916895260208901829052909790819081016101c7565b604080516001600160a01b039290921682526020820192909252a1565b15610c9e57565b60405162461bcd60e51b815260206004820152600f60248201526e6e6f7420726567697374657265642160881b6044820152606490fd5b307f00000000000000000000000000000000000000000000000000000000000000006001600160a01b03161480610dd7575b15610d30577f000000000000000000000000000000000000000000000000000000000000000090565b60405160208101907f8b73c3c69bb8fe3d512ecc4cf759cc79239f7b179b0ffacaa9a75d522b39400f82527f000000000000000000000000000000000000000000000000000000000000000060408201527f000000000000000000000000000000000000000000000000000000000000000060608201524660808201523060a082015260a0815260c0810181811067ffffffffffffffff821117610b0d5760405251902090565b507f00000000000000000000000000000000000000000000000000000000000000004614610d07565b6042916040519161190160f01b8352600283015260228201522090565b8151919060418303610e4e57610e4792506020820151906060604084015193015160001a906110df565b9192909190565b505060009160029190565b6004811015610ec85780610e6b575050565b60018103610e855760405163f645eedf60e01b8152600490fd5b60028103610ea65760405163fce698f760e01b815260048101839052602490fd5b600314610eb05750565b602490604051906335e2f38360e21b82526004820152fd5b634e487b7160e01b600052602160045260246000fd5b60ff8114610f1c5760ff811690601f8211610f0a5760405191610f0083610b3f565b8252602082015290565b604051632cd44ac360e21b8152600490fd5b50604051600080549060018260011c9060018416938415610ffc575b6020948584108114610fe85783875286949392918115610fc85750600114610f6c575b5050610f6992500382610b5b565b90565b60008080527f290decd9548b62a8d60345a988386fc84ba6bc95484008f6362f93160ef3e56395935091905b818310610fb0575050610f6993508201013880610f5b565b85548784018501529485019486945091830191610f98565b915050610f6994925060ff191682840152151560051b8201013880610f5b565b634e487b7160e01b85526022600452602485fd5b91607f1691610f38565b60ff81146110285760ff811690601f8211610f0a5760405191610f0083610b3f565b506040516000600190600154918260011c90600184169384156110d5575b6020948584108114610fe85783875286949392918115610fc85750600114611076575050610f6992500382610b5b565b9093915060016000527fb10e2d527612073b26eecdfd717e6a320cf44b4afac2b0732d9fcbe2b7fa0cf6936000915b8183106110bd575050610f6993508201013880610f5b565b855487840185015294850194869450918301916110a5565b91607f1691611046565b91907f7fffffffffffffffffffffffffffffff5d576e7357a4501ddfe92f46681b20a0841161116357926020929160ff608095604051948552168484015260408301526060820152600092839182805260015afa156111575780516001600160a01b0381161561114e57918190565b50809160019190565b604051903d90823e3d90fd5b5050506000916003919056fe965ebf50026597ecf9b6d0d69cca20824448f53ff3484d32e5d09d8fc94e77d5524e52e71c2be87ae5d8f1ae028658b13c909545640ed2f687e18dfa24015867a2646970667358221220b89a58819d75e98c82dca67aba170a06b5375d085c2218bc8636692e5b726fdd64736f6c63430008190033",
    "linkReferences": {}
  },
  "methodIdentifiers": {
    "chgAdmin(address)": "07951ec1",
    "eip712Domain()": "84b0196e",
    "nonces(address)": "7ecebe00",
    "permitApprove(address,uint256,bytes)": "0bebd8d5",
    "permitApproveAllNFT(address,uint256,bytes)": "bd801827",
    "permitApproveNFT(address,uint256,bytes)": "4b447502",
    "permitChgOwnerPwd(address,uint256,bytes,address,uint256,bytes)": "4562df39",
    "permitMarketSWAP(address,uint256,bytes)": "ae31bf94",
    "permitRegister(address,uint256,bytes)": "4fa50a5e",
    "permitTransferETH(address,uint256,address,uint256,bytes)": "1ff2618b",
    "permitTransferNFT(address,uint256,bytes)": "7dd1ccc9",
    "permitTransferToken(address,address,uint256,address,uint256,bytes)": "e3be05f2",
    "queryContractAddr(address,uint256,bytes)": "50c15320"
  },
  "id": 1
}