{
  "abi": [
    {
      "type": "constructor",
      "inputs": [],
      "stateMutability": "nonpayable"
    },
    {
      "type": "function",
      "name": "DOMAIN_SEPARATOR",
      "inputs": [],
      "outputs": [
        {
          "name": "",
          "type": "bytes32",
          "internalType": "bytes32"
        }
      ],
      "stateMutability": "view"
    },
    {
      "type": "function",
      "name": "chgAdmin",
      "inputs": [
        {
          "name": "newAdmin",
          "type": "address",
          "internalType": "address"
        }
      ],
      "outputs": [],
      "stateMutability": "nonpayable"
    },
    {
      "type": "function",
      "name": "eip712Domain",
      "inputs": [],
      "outputs": [
        {
          "name": "fields",
          "type": "bytes1",
          "internalType": "bytes1"
        },
        {
          "name": "name",
          "type": "string",
          "internalType": "string"
        },
        {
          "name": "version",
          "type": "string",
          "internalType": "string"
        },
        {
          "name": "chainId",
          "type": "uint256",
          "internalType": "uint256"
        },
        {
          "name": "verifyingContract",
          "type": "address",
          "internalType": "address"
        },
        {
          "name": "salt",
          "type": "bytes32",
          "internalType": "bytes32"
        },
        {
          "name": "extensions",
          "type": "uint256[]",
          "internalType": "uint256[]"
        }
      ],
      "stateMutability": "view"
    },
    {
      "type": "function",
      "name": "nonces",
      "inputs": [
        {
          "name": "owner",
          "type": "address",
          "internalType": "address"
        }
      ],
      "outputs": [
        {
          "name": "",
          "type": "uint256",
          "internalType": "uint256"
        }
      ],
      "stateMutability": "view"
    },
    {
      "type": "function",
      "name": "permitApprove",
      "inputs": [
        {
          "name": "eoa",
          "type": "address",
          "internalType": "address"
        },
        {
          "name": "nonce",
          "type": "uint256",
          "internalType": "uint256"
        },
        {
          "name": "signature",
          "type": "bytes",
          "internalType": "bytes"
        }
      ],
      "outputs": [],
      "stateMutability": "nonpayable"
    },
    {
      "type": "function",
      "name": "permitApproveAllNFT",
      "inputs": [
        {
          "name": "eoa",
          "type": "address",
          "internalType": "address"
        },
        {
          "name": "nonce",
          "type": "uint256",
          "internalType": "uint256"
        },
        {
          "name": "signature",
          "type": "bytes",
          "internalType": "bytes"
        }
      ],
      "outputs": [],
      "stateMutability": "nonpayable"
    },
    {
      "type": "function",
      "name": "permitApproveNFT",
      "inputs": [
        {
          "name": "eoa",
          "type": "address",
          "internalType": "address"
        },
        {
          "name": "nonce",
          "type": "uint256",
          "internalType": "uint256"
        },
        {
          "name": "signature",
          "type": "bytes",
          "internalType": "bytes"
        }
      ],
      "outputs": [],
      "stateMutability": "nonpayable"
    },
    {
      "type": "function",
      "name": "permitChgOwnerPwd",
      "inputs": [
        {
          "name": "eoa",
          "type": "address",
          "internalType": "address"
        },
        {
          "name": "nonce",
          "type": "uint256",
          "internalType": "uint256"
        },
        {
          "name": "signature",
          "type": "bytes",
          "internalType": "bytes"
        },
        {
          "name": "eoa2",
          "type": "address",
          "internalType": "address"
        },
        {
          "name": "nonce2",
          "type": "uint256",
          "internalType": "uint256"
        },
        {
          "name": "signature2",
          "type": "bytes",
          "internalType": "bytes"
        }
      ],
      "outputs": [],
      "stateMutability": "nonpayable"
    },
    {
      "type": "function",
      "name": "permitMarketSWAP",
      "inputs": [
        {
          "name": "eoa",
          "type": "address",
          "internalType": "address"
        },
        {
          "name": "nonce",
          "type": "uint256",
          "internalType": "uint256"
        },
        {
          "name": "signature",
          "type": "bytes",
          "internalType": "bytes"
        }
      ],
      "outputs": [],
      "stateMutability": "nonpayable"
    },
    {
      "type": "function",
      "name": "permitQueryOrRegister",
      "inputs": [
        {
          "name": "eoa",
          "type": "address",
          "internalType": "address"
        },
        {
          "name": "nonce",
          "type": "uint256",
          "internalType": "uint256"
        },
        {
          "name": "signature",
          "type": "bytes",
          "internalType": "bytes"
        }
      ],
      "outputs": [
        {
          "name": "",
          "type": "address",
          "internalType": "address"
        }
      ],
      "stateMutability": "nonpayable"
    },
    {
      "type": "function",
      "name": "permitRegister",
      "inputs": [
        {
          "name": "eoa",
          "type": "address",
          "internalType": "address"
        },
        {
          "name": "nonce",
          "type": "uint256",
          "internalType": "uint256"
        },
        {
          "name": "signature",
          "type": "bytes",
          "internalType": "bytes"
        }
      ],
      "outputs": [],
      "stateMutability": "nonpayable"
    },
    {
      "type": "function",
      "name": "permitTransferETH",
      "inputs": [
        {
          "name": "to",
          "type": "address",
          "internalType": "address"
        },
        {
          "name": "amount",
          "type": "uint256",
          "internalType": "uint256"
        },
        {
          "name": "eoa",
          "type": "address",
          "internalType": "address"
        },
        {
          "name": "nonce",
          "type": "uint256",
          "internalType": "uint256"
        },
        {
          "name": "signature",
          "type": "bytes",
          "internalType": "bytes"
        }
      ],
      "outputs": [],
      "stateMutability": "nonpayable"
    },
    {
      "type": "function",
      "name": "permitTransferNFT",
      "inputs": [
        {
          "name": "eoa",
          "type": "address",
          "internalType": "address"
        },
        {
          "name": "nonce",
          "type": "uint256",
          "internalType": "uint256"
        },
        {
          "name": "signature",
          "type": "bytes",
          "internalType": "bytes"
        }
      ],
      "outputs": [],
      "stateMutability": "nonpayable"
    },
    {
      "type": "function",
      "name": "permitTransferToken",
      "inputs": [
        {
          "name": "token",
          "type": "address",
          "internalType": "address"
        },
        {
          "name": "to",
          "type": "address",
          "internalType": "address"
        },
        {
          "name": "amount",
          "type": "uint256",
          "internalType": "uint256"
        },
        {
          "name": "eoa",
          "type": "address",
          "internalType": "address"
        },
        {
          "name": "nonce",
          "type": "uint256",
          "internalType": "uint256"
        },
        {
          "name": "signature",
          "type": "bytes",
          "internalType": "bytes"
        }
      ],
      "outputs": [],
      "stateMutability": "nonpayable"
    },
    {
      "type": "function",
      "name": "queryContractAddr",
      "inputs": [
        {
          "name": "eoa",
          "type": "address",
          "internalType": "address"
        },
        {
          "name": "nonce",
          "type": "uint256",
          "internalType": "uint256"
        },
        {
          "name": "signature",
          "type": "bytes",
          "internalType": "bytes"
        }
      ],
      "outputs": [
        {
          "name": "",
          "type": "address",
          "internalType": "address"
        }
      ],
      "stateMutability": "view"
    },
    {
      "type": "event",
      "name": "EIP712DomainChanged",
      "inputs": [],
      "anonymous": false
    },
    {
      "type": "error",
      "name": "ECDSAInvalidSignature",
      "inputs": []
    },
    {
      "type": "error",
      "name": "ECDSAInvalidSignatureLength",
      "inputs": [
        {
          "name": "length",
          "type": "uint256",
          "internalType": "uint256"
        }
      ]
    },
    {
      "type": "error",
      "name": "ECDSAInvalidSignatureS",
      "inputs": [
        {
          "name": "s",
          "type": "bytes32",
          "internalType": "bytes32"
        }
      ]
    },
    {
      "type": "error",
      "name": "InvalidAccountNonce",
      "inputs": [
        {
          "name": "account",
          "type": "address",
          "internalType": "address"
        },
        {
          "name": "currentNonce",
          "type": "uint256",
          "internalType": "uint256"
        }
      ]
    },
    {
      "type": "error",
      "name": "InvalidShortString",
      "inputs": []
    },
    {
      "type": "error",
      "name": "PermitFail",
      "inputs": [
        {
          "name": "",
          "type": "address",
          "internalType": "address"
        }
      ]
    },
    {
      "type": "error",
      "name": "StringTooLong",
      "inputs": [
        {
          "name": "str",
          "type": "string",
          "internalType": "string"
        }
      ]
    }
  ],
  "bytecode": {
    "object": "0x610160806040523461015d5761001481610162565b600e8152602081016d776562336561737961636365737360901b81526040519161003d83610162565b6003835260208301620312e360ec1b81526100578261017d565b926101209384526100678561033c565b92610140938452519020938460e05251902091610100938385524660a0526040519360208501917f8b73c3c69bb8fe3d512ecc4cf759cc79239f7b179b0ffacaa9a75d522b39400f8352604086015260608501524660808501523060a085015260a0845260c084019380851060018060401b038611176101475760408590525190206080523060c052600480546001600160a01b0319163317905561122293846104d7853960805184610bed015260a05184610cb8015260c05184610bb7015260e05184610c3c01525183610c62015251826101e00152518161020a0152f35b634e487b7160e01b600052604160045260246000fd5b600080fd5b604081019081106001600160401b0382111761014757604052565b80516020919082811015610217575090601f8251116101b857808251920151908083106101a957501790565b82600019910360031b1b161790565b90604051809263305a27a960e01b82528060048301528251908160248401526000935b8285106101fe575050604492506000838284010152601f80199101168101030190fd5b84810182015186860160440152938101938593506101db565b6001600160401b038111610147576000928354926001938481811c91168015610332575b8382101461031e57601f81116102eb575b5081601f84116001146102885750928293918392869461027d575b50501b916000199060031b1c191617905560ff90565b015192503880610267565b919083601f1981168780528488209488905b888383106102d157505050106102b8575b505050811b01905560ff90565b015160001960f88460031b161c191690553880806102ab565b85870151885590960195948501948793509081019061029a565b85805284601f848820920160051c820191601f860160051c015b82811061031357505061024c565b878155018590610305565b634e487b7160e01b86526022600452602486fd5b90607f169061023b565b8051602090818110156103c55750601f82511161036657808251920151908083106101a957501790565b90604051809263305a27a960e01b82528060048301528251908160248401526000935b8285106103ac575050604492506000838284010152601f80199101168101030190fd5b8481018201518686016044015293810193859350610389565b9192916001600160401b0381116101475760019182548381811c911680156104cc575b828210146104b657601f8111610480575b5080601f831160011461043657508192939460009261042b575b5050600019600383901b1c191690821b17905560ff90565b015190503880610413565b90601f198316958460005282600020926000905b88821061046957505083859697106102b857505050811b01905560ff90565b80878596829496860151815501950193019061044a565b8360005283601f83600020920160051c820191601f850160051c015b8281106104aa5750506103f9565b6000815501849061049c565b634e487b7160e01b600052602260045260246000fd5b90607f16906103e856fe60406080815260048036101561001457600080fd5b600091823560e01c806307951ec1146107ca5780630bebd8d5146101ac5780631ff2618b146107205780633644e515146106fc5780633e18e6f31461067b5780634562df39146104d15780634b447502146101ac5780634fa50a5e146103a957806350c15320146103235780637dd1ccc9146101ac5780637ecebe00146102e757806384b0196e146101ca578063ae31bf94146101ac578063bd801827146101ac5763e3be05f2146100c557600080fd5b346101a85760c03660031901126101a8576100de610812565b506001600160a01b03602435818116036101a4576100fa61082d565b9160a435916001600160401b0383116101a0576101916101888261018261019d9861013a61012e6101989936908401610843565b949092541633146108f6565b61017a875160208101906000805160206111cd8339815191528252888c16809a82015260843560608201526060815261017281610933565b519020610b8e565b9236916109a0565b90610cde565b90929192610d1a565b16146109e6565b610abe565b80f35b8580fd5b8380fd5b8280fd5b83346101c75761019d6101be36610870565b92919091610a20565b80fd5b50346101a857826003193601126101a8576102047f0000000000000000000000000000000000000000000000000000000000000000610d9f565b9261022e7f0000000000000000000000000000000000000000000000000000000000000000610ec7565b9082519260209260208501958587106001600160401b038811176102d4575092602061028a83889661027d998b9996528686528151998a99600f60f81b8b5260e0868c015260e08b01906108b6565b91898303908a01526108b6565b924660608801523060808801528460a088015286840360c088015251928381520193925b8281106102bd57505050500390f35b8351855286955093810193928101926001016102ae565b634e487b7160e01b845260419052602483fd5b83823461031f57602036600319011261031f5760209181906001600160a01b0361030f610812565b1681526002845220549051908152f35b5080fd5b5090346101a8578160209361017a610399836103659561019161018861018261034b36610870565b939260018060a09c93949c1b039d8e8099541633146108f6565b8851602089908201926000805160206111cd8339815191528452169b8c809b83015260608201526060815261017281610933565b8152600385522054169051908152f35b5090346101a8578161017a9161041b610188946101826101916103cb36610870565b919a92949060018060a01b039a8b966103e8888c541633146108f6565b88518860208201926000805160206111cd8339815191528452169e8f809b83015260608201526060815261017281610933565b83855260036020528282862054166104995781519061019c808301918383106001600160401b0384111761048657509082916110318339039085f092831561047c5784526003602052832091166001600160601b0360a01b82541617905580f35b81513d86823e3d90fd5b634e487b7160e01b885260419052602487fd5b6020606492519162461bcd60e51b83528201526013602482015272616c726561647920726567697374657265642160681b6044820152fd5b50346101a85760c03660031901126101a8576104eb610812565b916001600160401b036044358181116101a05761050b9036908401610843565b61051693919361082d565b9060a4359384116106775785936105309036908501610843565b90600160a01b600190039586809481885416331461054d906108f6565b82519960208b01836000805160206111cd8339815191529e8f8352169b8c809682015260243560608201526060815261058581610933565b51902061059190610b8e565b91369061059d926109a0565b6105a691610cde565b6105af91610d1a565b16146105ba906109e6565b868a52600360205282888b20541615156105d390610a80565b82885194602086019a8b521698848a8a819701526084356060820152606081526105fc81610933565b51902061060890610b8e565b913690610614926109a0565b61061d91610cde565b61062691610d1a565b16036106605750818552600360205282852054169284528184206001600160601b0360a01b93848254161790558352822090815416905580f35b83516384c810db60e01b8152908101859052602490fd5b8780fd5b5082346101c757506106be6106f461017a6106ef846020966101916101886101826106a536610870565b939299909160018060a01b039c8d8099541633146108f6565b88518f8101916000805160206111cd8339815191528352898d16809b83015260608201526060815261017281610933565b610af0565b915191168152f35b83823461031f578160031936011261031f57602090610719610bb4565b9051908152f35b50346101a85760a03660031901126101a85761073a610812565b50604435906001600160a01b03808316908184036101a057608435926001600160401b0384116107c6576101888261018261019d9861017a610191956107956107896101989b36908601610843565b969094541633146108f6565b80518960208201926000805160206111cd833981519152845282015260643560608201526060815261017281610933565b8680fd5b50503461031f57602036600319011261031f576107e5610812565b8154906001600160a01b03906107fe33838516146108f6565b16906001600160601b0360a01b1617905580f35b600435906001600160a01b038216820361082857565b600080fd5b606435906001600160a01b038216820361082857565b9181601f84011215610828578235916001600160401b038311610828576020838186019501011161082857565b6060600319820112610828576004356001600160a01b0381168103610828579160243591604435906001600160401b038211610828576108b291600401610843565b9091565b919082519283825260005b8481106108e2575050826000602080949584010152601f8019910116010190565b6020818301810151848301820152016108c1565b156108fd57565b60405162461bcd60e51b815260206004820152600e60248201526d6d7573742062652061646d696e2160901b6044820152606490fd5b608081019081106001600160401b0382111761094e57604052565b634e487b7160e01b600052604160045260246000fd5b604081019081106001600160401b0382111761094e57604052565b90601f801991011681019081106001600160401b0382111761094e57604052565b9291926001600160401b03821161094e57604051916109c9601f8201601f19166020018461097f565b829481845281830111610828578281602093846000960137010152565b156109ed57565b60405162461bcd60e51b815260206004820152600b60248201526a7369676e206572726f722160a81b6044820152606490fd5b9091610188610a7e946101826101919361017a60018060a01b0396610a4a886004541633146108f6565b6040518860208201926000805160206111cd833981519152845216998a604083015260608201526060815261017281610933565b565b15610a8757565b60405162461bcd60e51b815260206004820152600f60248201526e6e6f7420726567697374657265642160881b6044820152606490fd5b6001600160a01b039081166000818152600360205260409020549091610ae691161515610a80565b6000526003602052565b6001600160a01b0390811660008181526003602052604081205491929091811680610b87575060405161019c808201908282106001600160401b03831117610b73579082916110318339039083f08015610b6857906040929116928152600360205220816001600160601b0360a01b82541617905590565b6040513d84823e3d90fd5b634e487b7160e01b85526041600452602485fd5b9250505090565b604290610b99610bb4565b906040519161190160f01b8352600283015260228201522090565b307f00000000000000000000000000000000000000000000000000000000000000006001600160a01b03161480610cb5575b15610c0f577f000000000000000000000000000000000000000000000000000000000000000090565b60405160208101907f8b73c3c69bb8fe3d512ecc4cf759cc79239f7b179b0ffacaa9a75d522b39400f82527f000000000000000000000000000000000000000000000000000000000000000060408201527f000000000000000000000000000000000000000000000000000000000000000060608201524660808201523060a082015260a0815260c081018181106001600160401b0382111761094e5760405251902090565b507f00000000000000000000000000000000000000000000000000000000000000004614610be6565b8151919060418303610d0f57610d0892506020820151906060604084015193015160001a90610fa0565b9192909190565b505060009160029190565b6004811015610d895780610d2c575050565b60018103610d465760405163f645eedf60e01b8152600490fd5b60028103610d675760405163fce698f760e01b815260048101839052602490fd5b600314610d715750565b602490604051906335e2f38360e21b82526004820152fd5b634e487b7160e01b600052602160045260246000fd5b60ff8114610ddd5760ff811690601f8211610dcb5760405191610dc183610964565b8252602082015290565b604051632cd44ac360e21b8152600490fd5b50604051600080549060018260011c9060018416938415610ebd575b6020948584108114610ea95783875286949392918115610e895750600114610e2d575b5050610e2a9250038261097f565b90565b60008080527f290decd9548b62a8d60345a988386fc84ba6bc95484008f6362f93160ef3e56395935091905b818310610e71575050610e2a93508201013880610e1c565b85548784018501529485019486945091830191610e59565b915050610e2a94925060ff191682840152151560051b8201013880610e1c565b634e487b7160e01b85526022600452602485fd5b91607f1691610df9565b60ff8114610ee95760ff811690601f8211610dcb5760405191610dc183610964565b506040516000600190600154918260011c9060018416938415610f96575b6020948584108114610ea95783875286949392918115610e895750600114610f37575050610e2a9250038261097f565b9093915060016000527fb10e2d527612073b26eecdfd717e6a320cf44b4afac2b0732d9fcbe2b7fa0cf6936000915b818310610f7e575050610e2a93508201013880610e1c565b85548784018501529485019486945091830191610f66565b91607f1691610f07565b91907f7fffffffffffffffffffffffffffffff5d576e7357a4501ddfe92f46681b20a0841161102457926020929160ff608095604051948552168484015260408301526060820152600092839182805260015afa156110185780516001600160a01b0381161561100f57918190565b50809160019190565b604051903d90823e3d90fd5b5050506000916003919056fe60808060405234602757600180546001600160a01b0319163317905561016f908161002d8239f35b600080fdfe608080604052600436101561001d575b50361561001b57600080fd5b005b600090813560e01c9081631ba3924e1461011f575080637b1a490914610094576388c9c90e0361000f5734610091576020366003190112610091576001546001600160a01b03163303610091578054600435810180911161007d57815580f35b634e487b7160e01b82526011600452602482fd5b80fd5b506040366003190112610091576004356001600160a01b0381169081900361011b57602435904782116100ed578280809381938282156100e4575bf1156100d85780f35b604051903d90823e3d90fd5b506108fc6100cf565b60405162461bcd60e51b815260206004820152600660248201526520787878203160d01b6044820152606490fd5b5080fd5b90503461011b578160031936011261011b57602091548152f3fea2646970667358221220b4832c154f1a0a60d624297a54c5f0a3c7b33473fc9c19524dba6da949f42a1564736f6c63430008190033fdf8bcc3ff8fb6d47a22b87e38f4decd36ea1d6d99dc87e524adfaac8cd29afda26469706673582212209ed6b6a5c5c41326947577d5f58050604c9acbb824eb3c286c5dc5810d1ae14b64736f6c63430008190033",
    "linkReferences": {}
  },
  "methodIdentifiers": {
    "DOMAIN_SEPARATOR()": "3644e515",
    "chgAdmin(address)": "07951ec1",
    "eip712Domain()": "84b0196e",
    "nonces(address)": "7ecebe00",
    "permitApprove(address,uint256,bytes)": "0bebd8d5",
    "permitApproveAllNFT(address,uint256,bytes)": "bd801827",
    "permitApproveNFT(address,uint256,bytes)": "4b447502",
    "permitChgOwnerPwd(address,uint256,bytes,address,uint256,bytes)": "4562df39",
    "permitMarketSWAP(address,uint256,bytes)": "ae31bf94",
    "permitQueryOrRegister(address,uint256,bytes)": "3e18e6f3",
    "permitRegister(address,uint256,bytes)": "4fa50a5e",
    "permitTransferETH(address,uint256,address,uint256,bytes)": "1ff2618b",
    "permitTransferNFT(address,uint256,bytes)": "7dd1ccc9",
    "permitTransferToken(address,address,uint256,address,uint256,bytes)": "e3be05f2",
    "queryContractAddr(address,uint256,bytes)": "50c15320"
  },
  "id": 2
}