{
  "abi": [
    {
      "type": "constructor",
      "inputs": [],
      "stateMutability": "nonpayable"
    },
    {
      "type": "function",
      "name": "DOMAIN_SEPARATOR",
      "inputs": [],
      "outputs": [
        {
          "name": "",
          "type": "bytes32",
          "internalType": "bytes32"
        }
      ],
      "stateMutability": "view"
    },
    {
      "type": "function",
      "name": "accumulateGasInUsdc",
      "inputs": [
        {
          "name": "eoa",
          "type": "address",
          "internalType": "address"
        },
        {
          "name": "_gasInEth",
          "type": "uint256",
          "internalType": "uint256"
        }
      ],
      "outputs": [],
      "stateMutability": "nonpayable"
    },
    {
      "type": "function",
      "name": "admin",
      "inputs": [],
      "outputs": [
        {
          "name": "",
          "type": "address",
          "internalType": "address"
        }
      ],
      "stateMutability": "view"
    },
    {
      "type": "function",
      "name": "chgAdmin",
      "inputs": [
        {
          "name": "newAdmin",
          "type": "address",
          "internalType": "address"
        }
      ],
      "outputs": [],
      "stateMutability": "nonpayable"
    },
    {
      "type": "function",
      "name": "eip712Domain",
      "inputs": [],
      "outputs": [
        {
          "name": "fields",
          "type": "bytes1",
          "internalType": "bytes1"
        },
        {
          "name": "name",
          "type": "string",
          "internalType": "string"
        },
        {
          "name": "version",
          "type": "string",
          "internalType": "string"
        },
        {
          "name": "chainId",
          "type": "uint256",
          "internalType": "uint256"
        },
        {
          "name": "verifyingContract",
          "type": "address",
          "internalType": "address"
        },
        {
          "name": "salt",
          "type": "bytes32",
          "internalType": "bytes32"
        },
        {
          "name": "extensions",
          "type": "uint256[]",
          "internalType": "uint256[]"
        }
      ],
      "stateMutability": "view"
    },
    {
      "type": "function",
      "name": "nonces",
      "inputs": [
        {
          "name": "owner",
          "type": "address",
          "internalType": "address"
        }
      ],
      "outputs": [
        {
          "name": "",
          "type": "uint256",
          "internalType": "uint256"
        }
      ],
      "stateMutability": "view"
    },
    {
      "type": "function",
      "name": "permitApprove",
      "inputs": [
        {
          "name": "eoa",
          "type": "address",
          "internalType": "address"
        },
        {
          "name": "nonce",
          "type": "uint256",
          "internalType": "uint256"
        },
        {
          "name": "signature",
          "type": "bytes",
          "internalType": "bytes"
        }
      ],
      "outputs": [],
      "stateMutability": "nonpayable"
    },
    {
      "type": "function",
      "name": "permitApproveAllNFT",
      "inputs": [
        {
          "name": "eoa",
          "type": "address",
          "internalType": "address"
        },
        {
          "name": "nonce",
          "type": "uint256",
          "internalType": "uint256"
        },
        {
          "name": "signature",
          "type": "bytes",
          "internalType": "bytes"
        }
      ],
      "outputs": [],
      "stateMutability": "nonpayable"
    },
    {
      "type": "function",
      "name": "permitApproveNFT",
      "inputs": [
        {
          "name": "eoa",
          "type": "address",
          "internalType": "address"
        },
        {
          "name": "nonce",
          "type": "uint256",
          "internalType": "uint256"
        },
        {
          "name": "signature",
          "type": "bytes",
          "internalType": "bytes"
        }
      ],
      "outputs": [],
      "stateMutability": "nonpayable"
    },
    {
      "type": "function",
      "name": "permitChgOwnerPwd",
      "inputs": [
        {
          "name": "eoa",
          "type": "address",
          "internalType": "address"
        },
        {
          "name": "nonce",
          "type": "uint256",
          "internalType": "uint256"
        },
        {
          "name": "signature",
          "type": "bytes",
          "internalType": "bytes"
        },
        {
          "name": "eoa2",
          "type": "address",
          "internalType": "address"
        },
        {
          "name": "nonce2",
          "type": "uint256",
          "internalType": "uint256"
        },
        {
          "name": "signature2",
          "type": "bytes",
          "internalType": "bytes"
        }
      ],
      "outputs": [],
      "stateMutability": "nonpayable"
    },
    {
      "type": "function",
      "name": "permitMarketSWAP",
      "inputs": [
        {
          "name": "eoa",
          "type": "address",
          "internalType": "address"
        },
        {
          "name": "nonce",
          "type": "uint256",
          "internalType": "uint256"
        },
        {
          "name": "signature",
          "type": "bytes",
          "internalType": "bytes"
        }
      ],
      "outputs": [],
      "stateMutability": "nonpayable"
    },
    {
      "type": "function",
      "name": "permitRegister",
      "inputs": [
        {
          "name": "eoa",
          "type": "address",
          "internalType": "address"
        },
        {
          "name": "nonce",
          "type": "uint256",
          "internalType": "uint256"
        },
        {
          "name": "signature",
          "type": "bytes",
          "internalType": "bytes"
        }
      ],
      "outputs": [],
      "stateMutability": "nonpayable"
    },
    {
      "type": "function",
      "name": "permitTransferETH",
      "inputs": [
        {
          "name": "to",
          "type": "address",
          "internalType": "address"
        },
        {
          "name": "amount",
          "type": "uint256",
          "internalType": "uint256"
        },
        {
          "name": "eoa",
          "type": "address",
          "internalType": "address"
        },
        {
          "name": "nonce",
          "type": "uint256",
          "internalType": "uint256"
        },
        {
          "name": "signature",
          "type": "bytes",
          "internalType": "bytes"
        }
      ],
      "outputs": [],
      "stateMutability": "payable"
    },
    {
      "type": "function",
      "name": "permitTransferNFT",
      "inputs": [
        {
          "name": "eoa",
          "type": "address",
          "internalType": "address"
        },
        {
          "name": "nonce",
          "type": "uint256",
          "internalType": "uint256"
        },
        {
          "name": "signature",
          "type": "bytes",
          "internalType": "bytes"
        }
      ],
      "outputs": [],
      "stateMutability": "nonpayable"
    },
    {
      "type": "function",
      "name": "permitTransferToken",
      "inputs": [
        {
          "name": "token",
          "type": "address",
          "internalType": "address"
        },
        {
          "name": "to",
          "type": "address",
          "internalType": "address"
        },
        {
          "name": "amount",
          "type": "uint256",
          "internalType": "uint256"
        },
        {
          "name": "eoa",
          "type": "address",
          "internalType": "address"
        },
        {
          "name": "nonce",
          "type": "uint256",
          "internalType": "uint256"
        },
        {
          "name": "signature",
          "type": "bytes",
          "internalType": "bytes"
        }
      ],
      "outputs": [],
      "stateMutability": "nonpayable"
    },
    {
      "type": "function",
      "name": "queryContractAddr",
      "inputs": [
        {
          "name": "eoa",
          "type": "address",
          "internalType": "address"
        },
        {
          "name": "nonce",
          "type": "uint256",
          "internalType": "uint256"
        },
        {
          "name": "signature",
          "type": "bytes",
          "internalType": "bytes"
        }
      ],
      "outputs": [
        {
          "name": "ca",
          "type": "address",
          "internalType": "address"
        },
        {
          "name": "balance",
          "type": "uint256",
          "internalType": "uint256"
        },
        {
          "name": "gasInUsdc",
          "type": "uint256",
          "internalType": "uint256"
        }
      ],
      "stateMutability": "view"
    },
    {
      "type": "event",
      "name": "EIP712DomainChanged",
      "inputs": [],
      "anonymous": false
    },
    {
      "type": "event",
      "name": "Log",
      "inputs": [
        {
          "name": "message",
          "type": "string",
          "indexed": false,
          "internalType": "string"
        }
      ],
      "anonymous": false
    },
    {
      "type": "event",
      "name": "LogBytes",
      "inputs": [
        {
          "name": "data",
          "type": "bytes",
          "indexed": false,
          "internalType": "bytes"
        }
      ],
      "anonymous": false
    },
    {
      "type": "error",
      "name": "ECDSAInvalidSignature",
      "inputs": []
    },
    {
      "type": "error",
      "name": "ECDSAInvalidSignatureLength",
      "inputs": [
        {
          "name": "length",
          "type": "uint256",
          "internalType": "uint256"
        }
      ]
    },
    {
      "type": "error",
      "name": "ECDSAInvalidSignatureS",
      "inputs": [
        {
          "name": "s",
          "type": "bytes32",
          "internalType": "bytes32"
        }
      ]
    },
    {
      "type": "error",
      "name": "InvalidAccountNonce",
      "inputs": [
        {
          "name": "account",
          "type": "address",
          "internalType": "address"
        },
        {
          "name": "currentNonce",
          "type": "uint256",
          "internalType": "uint256"
        }
      ]
    },
    {
      "type": "error",
      "name": "InvalidShortString",
      "inputs": []
    },
    {
      "type": "error",
      "name": "StringTooLong",
      "inputs": [
        {
          "name": "str",
          "type": "string",
          "internalType": "string"
        }
      ]
    }
  ],
  "bytecode": {
    "object": "0x61016060409080825234620001b1576200001981620001b6565b600e815260208101906d776562336561737961636365737360901b82528251926200004484620001b6565b6003845260208401620312e360ec1b81526200006083620001d2565b936101209485526200007286620003a5565b93610140948552519020948560e05251902093610100948086524660a05282519060208201927f8b73c3c69bb8fe3d512ecc4cf759cc79239f7b179b0ffacaa9a75d522b39400f84528483015260608201524660808201523060a082015260a0815260c081019060018060401b0392818310848411176200019b57828552815190206080523060c05260018060a01b031992338460055416176005556101b28083019160c08301908582109111176200019b5762001d06843903906000f08015620001905760018060a01b031690600454161760045551916117b3938462000553853960805184611025015260a051846110f0015260c05184610fef015260e051846110740152518361109a015251826102a1015251816102cb0152f35b82513d6000823e3d90fd5b634e487b7160e01b600052604160045260246000fd5b600080fd5b604081019081106001600160401b038211176200019b57604052565b8051602091908281101562000271575090601f8251116200021057808251920151908083106200020157501790565b82600019910360031b1b161790565b90604051809263305a27a960e01b82528060048301528251908160248401526000935b82851062000257575050604492506000838284010152601f80199101168101030190fd5b848101820151868601604401529381019385935062000233565b6001600160401b0381116200019b576000928354926001938481811c911680156200039a575b838210146200038657601f811162000350575b5081601f8411600114620002e957509282939183928694620002dd575b50501b916000199060031b1c191617905560ff90565b015192503880620002c7565b919083601f1981168780528488209488905b888383106200033557505050106200031b575b505050811b01905560ff90565b015160001960f88460031b161c191690553880806200030e565b858701518855909601959485019487935090810190620002fb565b85805284601f848820920160051c820191601f860160051c015b8281106200037a575050620002aa565b8781550185906200036a565b634e487b7160e01b86526022600452602486fd5b90607f169062000297565b805160209081811015620004335750601f825111620003d257808251920151908083106200020157501790565b90604051809263305a27a960e01b82528060048301528251908160248401526000935b82851062000419575050604492506000838284010152601f80199101168101030190fd5b8481018201518686016044015293810193859350620003f5565b9192916001600160401b0381116200019b5760019182548381811c9116801562000547575b828210146200053157601f8111620004f8575b5080601f8311600114620004ab5750819293946000926200049f575b5050600019600383901b1c191690821b17905560ff90565b01519050388062000487565b90601f198316958460005282600020926000905b888210620004e057505083859697106200031b57505050811b01905560ff90565b808785968294968601518155019501930190620004bf565b8360005283601f83600020920160051c820191601f850160051c015b828110620005245750506200046b565b6000815501849062000514565b634e487b7160e01b600052602260045260246000fd5b90607f16906200045856fe6040608081526004908136101561001557600080fd5b600091823560e01c90816307951ec1146109d15781630bebd8d51461026b578163144915dd146108d75781631ff2618b146107d45781633644e515146107b05781634562df39146105e55781634b4475021461026b5781634fa50a5e146104ea57816350c15320146103e05781637dd1ccc91461026b5781637ecebe00146103a857816384b0196e14610289578163ae31bf941461026b578163bd8018271461026b578163e3be05f2146100fe575063f851a440146100d357600080fd5b346100fa57816003193601126100fa5760055490516001600160a01b039091168152602090f35b5080fd5b9050346102675760c036600319011261026757610119610a1a565b916024356001600160a01b038181169182900361026257859461013a610a30565b60a4356001600160401b03811161025e5785846101d06101c76101c16101668c6101d797369101610a46565b919061017786600554163314610af9565b6101b98751998760208c019160008051602061175e8339815191528352169a8b809a8201526084356060820152606081526101b181610b5f565b519020611116565b923691610d8c565b90610e9b565b90929192610f67565b1614610dc3565b80875260036020526101ef8386892054161515610dfd565b8652600360205281848720541690813b1561025a5786606492819587519889968795637aa9bf6f60e11b87521690850152602484015260443560448401525af1908115610251575061023e5750f35b61024790610b36565b61024e5780f35b80fd5b513d84823e3d90fd5b8680fd5b8780fd5b600080fd5b8280fd5b833461024e5761028661027d36610a73565b92919091610e3b565b80f35b919050346102675782600319360112610267576102c57f000000000000000000000000000000000000000000000000000000000000000061113c565b926102ef7f000000000000000000000000000000000000000000000000000000000000000061125f565b90825192602092838501958587106001600160401b038811176103935750928061034983889661033c998b9996528686528151998a99600f60f81b8b5260e0868c015260e08b0190610ab9565b91898303908a0152610ab9565b924660608801523060808801528460a088015286840360c088015251928381520193925b82811061037c57505050500390f35b83518552869550938101939281019260010161036d565b604190634e487b7160e01b6000525260246000fd5b5050346100fa5760203660031901126100fa5760209181906001600160a01b036103d0610a1a565b1681526002845220549051908152f35b8383346100fa57806101c16101c76104576101d0946103fe36610a73565b60018060a09b949b989395981b0397889461041e86600554163314610af9565b6101b987519960209a888c82019260008051602061175e8339815191528452169e8f809b8301526060820152606081526101b181610b5f565b849185948652600382528386205416948561047f575b50606095508251948552840152820152f35b915092508331908383518097630dd1c92760e11b825281885afa9081156104df57906104b1575b60609550928661046d565b508285813d83116104d8575b6104c78183610b95565b8101031261026257606094516104a6565b503d6104bd565b8351903d90823e3d90fd5b90503461026757816101b99161055d6101c7946101c16101d061050c36610a73565b919a92949060018060a01b039a8b9661052a88600554163314610af9565b885188602082019260008051602061175e8339815191528452169e8f809b8301526060820152606081526101b181610b5f565b838552600360205282828620541615610574578480f35b81519061042b808301918383106001600160401b038411176105d257509082916113338339039085f09283156105c85784526003602052832091166001600160601b0360a01b825416179055388080808480f35b81513d86823e3d90fd5b634e487b7160e01b885260419052602487fd5b919050346102675760c036600319011261026757610601610a1a565b916001600160401b036044358181116107ac576106219036908401610a46565b61062c939193610a30565b9060a43593841161025e5785936106469036908501610a46565b90600160a01b60019003958680948160055416331461066490610af9565b82519960208b018360008051602061175e8339815191529e8f8352169b8c809682015260243560608201526060815261069c81610b5f565b5190206106a890611116565b9136906106b492610d8c565b6106bd91610e9b565b6106c691610f67565b16146106d190610dc3565b868a52600360205282888b20541615156106ea90610dfd565b82885194602086019a8b521698848a8a8197015260843560608201526060815261071381610b5f565b51902061071f90611116565b91369061072b92610d8c565b61073491610e9b565b61073d91610f67565b16036107775750818552600360205282852054169284528184206001600160601b0360a01b93848254161790558352822090815416905580f35b606490602085519162461bcd60e51b8352820152600f60248201526e7369676e206572726f72203232202160881b6044820152fd5b8580fd5b5050346100fa57816003193601126100fa576020906107cd610fec565b9051908152f35b905060a0366003190112610267576107ea610a1a565b6044356001600160a01b038181169492918590036102625785946084356001600160401b03811161025a5781836101d06101c76101c16108306108769636908d01610a46565b919061084186600554163314610af9565b6101b98c805189602082019260008051602061175e83398151915284528201526064356060820152606081526101b181610b5f565b808652600360205261088e8285882054161515610dfd565b85526003602052808386205416803b156107ac5785928360449286519788958694637b1a490960e01b8652169084015260243560248401525af1908115610251575061023e5750f35b919050346102675780600319360112610267576108f2610a1a565b600554602435916001600160a01b03918216330361099c57811685526003602052828520541680610921578480f35b610929610c42565b9182810292818404149015171561098957908185923b15610267576305f5e100918360249286519788958694634464e48760e11b865204908401525af1908115610251575061097a575b8080808480f35b61098390610b36565b38610973565b634e487b7160e01b855260118452602485fd5b835162461bcd60e51b8152602081870152600f60248201526e6d7573742062652061646d696e322160881b6044820152606490fd5b833461024e57602036600319011261024e576109eb610a1a565b600554906001600160a01b0390610a053383851614610af9565b16906001600160601b0360a01b161760055580f35b600435906001600160a01b038216820361026257565b606435906001600160a01b038216820361026257565b9181601f84011215610262578235916001600160401b038311610262576020838186019501011161026257565b6060600319820112610262576004356001600160a01b0381168103610262579160243591604435906001600160401b03821161026257610ab591600401610a46565b9091565b919082519283825260005b848110610ae5575050826000602080949584010152601f8019910116010190565b602081830181015184830182015201610ac4565b15610b0057565b60405162461bcd60e51b815260206004820152600e60248201526d6d7573742062652061646d696e2160901b6044820152606490fd5b6001600160401b038111610b4957604052565b634e487b7160e01b600052604160045260246000fd5b608081019081106001600160401b03821117610b4957604052565b604081019081106001600160401b03821117610b4957604052565b90601f801991011681019081106001600160401b03821117610b4957604052565b600060443d10610c1357604051600319913d83016004833e81516001600160401b03918282113d602484011117610c1657818401948551938411610c1e573d85010160208487010111610c165750610c1392910160200190610b95565b90565b949350505050565b50949350505050565b6001600160401b038111610b4957601f01601f191660200190565b60048054604051638c3c9a5560e01b815260209290918391839182906001600160a01b03165afa60009181610d5d575b50610d585750600060033d11610d4a575b6308c379a014610d01575b7f532fd6ea96cfb78bb46e09279a26828b8b493de1a2b8b1ee1face527978a15a5903d15610cf9573d90610cc182610c27565b91610ccf6040519384610b95565b82523d60008284013e5b610ced604051928284938452830190610ab9565b0390a1645628221ec890565b606090610cd9565b610d09610bb6565b80610d145750610c8e565b7fcf34ef537ac33ee1ac626ca1587a0a7e8e51561e5514f8cb36afa1c5102b3bab91610ced604051928284938452830190610ab9565b600481803e5160e01c610c83565b905090565b90918382813d8311610d85575b610d748183610b95565b8101031261024e5750519038610c72565b503d610d6a565b929192610d9882610c27565b91610da66040519384610b95565b829481845281830111610262578281602093846000960137010152565b15610dca57565b60405162461bcd60e51b815260206004820152600b60248201526a7369676e206572726f722160a81b6044820152606490fd5b15610e0457565b60405162461bcd60e51b815260206004820152600f60248201526e6e6f7420726567697374657265642160881b6044820152606490fd5b90916101c7610e99946101c16101d0936101b960018060a01b0396610e6588600554163314610af9565b60405188602082019260008051602061175e833981519152845216998a60408301526060820152606081526101b181610b5f565b565b8151919060418303610ecc57610ec592506020820151906060604084015193015160001a90610ed7565b9192909190565b505060009160029190565b91907f7fffffffffffffffffffffffffffffff5d576e7357a4501ddfe92f46681b20a08411610f5b57926020929160ff608095604051948552168484015260408301526060820152600092839182805260015afa15610f4f5780516001600160a01b03811615610f4657918190565b50809160019190565b604051903d90823e3d90fd5b50505060009160039190565b6004811015610fd65780610f79575050565b60018103610f935760405163f645eedf60e01b8152600490fd5b60028103610fb45760405163fce698f760e01b815260048101839052602490fd5b600314610fbe5750565b602490604051906335e2f38360e21b82526004820152fd5b634e487b7160e01b600052602160045260246000fd5b307f00000000000000000000000000000000000000000000000000000000000000006001600160a01b031614806110ed575b15611047577f000000000000000000000000000000000000000000000000000000000000000090565b60405160208101907f8b73c3c69bb8fe3d512ecc4cf759cc79239f7b179b0ffacaa9a75d522b39400f82527f000000000000000000000000000000000000000000000000000000000000000060408201527f000000000000000000000000000000000000000000000000000000000000000060608201524660808201523060a082015260a0815260c081018181106001600160401b03821117610b495760405251902090565b507f0000000000000000000000000000000000000000000000000000000000000000461461101e565b604290611121610fec565b906040519161190160f01b8352600283015260228201522090565b60ff811461117a5760ff811690601f8211611168576040519161115e83610b7a565b8252602082015290565b604051632cd44ac360e21b8152600490fd5b506040516000805490600182811c90808416938415611255575b6020948584108114611241578387528694939291811561122157506001146111c5575b5050610c1392500382610b95565b60008080527f290decd9548b62a8d60345a988386fc84ba6bc95484008f6362f93160ef3e56395935091905b818310611209575050610c13935082010138806111b7565b855487840185015294850194869450918301916111f1565b915050610c1394925060ff191682840152151560051b82010138806111b7565b634e487b7160e01b85526022600452602485fd5b91607f1691611194565b60ff81146112815760ff811690601f8211611168576040519161115e83610b7a565b50604051600060019081549182811c90808416938415611328575b6020948584108114611241578387528694939291811561122157506001146112cc575050610c1392500382610b95565b60008181527fb10e2d527612073b26eecdfd717e6a320cf44b4afac2b0732d9fcbe2b7fa0cf695935091905b818310611310575050610c13935082010138806111b7565b855487840185015294850194869450918301916112f8565b91607f169161129c56fe6080806040523461002857600180546001600160a01b031916331790556103fd908161002e8239f35b600080fdfe6080604081815260049081361015610022575b505050361561002057600080fd5b005b600092833560e01c9081631a075e15146103065781631ba3924e146102ec57508063280e2306146102c15780634bc1dd7e146102c15780636e11fb1b146102a45780637b1a49091461020f57806388c9c90e146101c35763f5537ede0361001257346101bf5761009136610346565b6001549093926001600160a01b039291831633036101bb5782168351946370a0823160e01b865230878701526020958681602481865afa9081156101b1578991610180575b5081116101545791876044928795948751998a96879563a9059cbb60e01b8752169085015260248401525af190811561014b5750610112578280f35b81813d8311610144575b610126818361037b565b8101031261014057518015150361013d5738808280f35b80fd5b5080fd5b503d61011c565b513d85823e3d90fd5b845162461bcd60e51b81528088018790526006602482015265103c3c3c101960d11b6044820152606490fd5b90508681813d83116101aa575b610197818361037b565b810103126101a65751386100d6565b8880fd5b503d61018d565b86513d8b823e3d90fd5b8680fd5b8280fd5b505034610140576020366003190112610140576001546001600160a01b0316330361014057815490803582018092116101fc5750815580f35b634e487b7160e01b835260119052602482fd5b5090816003193601126101bf57610224610315565b600154602435926001600160a01b0391821633036102a0574784116102745750848093819382938391831561026a575b1690f115610260575080f35b51903d90823e3d90fd5b6108fc9250610254565b606490602086519162461bcd60e51b8352820152600660248201526520787878203160d01b6044820152fd5b8580fd5b833461013d576102b336610346565b5050506102be6103b3565b80f35b8382346101405736600319011261013d576102da610315565b506102e3610330565b506102be6103b3565b849034610140578160031936011261014057602091548152f35b843461013d576102b336610346565b600435906001600160a01b038216820361032b57565b600080fd5b602435906001600160a01b038216820361032b57565b606090600319011261032b576001600160a01b0390600435828116810361032b5791602435908116810361032b579060443590565b90601f8019910116810190811067ffffffffffffffff82111761039d57604052565b634e487b7160e01b600052604160045260246000fd5b6001546001600160a01b0316330361032b5756fea26469706673582212201f32a1ea1d6de2676c8eb58d788b9626e03a341fddb1bb1f200ee552e58740de64736f6c63430008140033fdf8bcc3ff8fb6d47a22b87e38f4decd36ea1d6d99dc87e524adfaac8cd29afda26469706673582212200d7bbf57df672a669a7679ed315f6c2fc75b06106caebd5363b3003740fe8ed464736f6c634300081400336080806040523461003c57600080546001600160a01b03191673694aa1769357215de4fac081bf1f309adc32530617905561017090816100428239f35b600080fdfe6080604052600436101561001257600080fd5b6000803560e01c638c3c9a551461002857600080fd5b3461004a578060031936011261004a576020610042610069565b604051908152f35b80fd5b519069ffffffffffffffffffff8216820361006457565b600080fd5b60008054604051633fabe5a360e21b8152919060a090839060049082906001600160a01b03165afa91821561012d5781926100b1575b50808213156100ac575090565b905090565b90915060a03d8111610126575b601f8101601f1916820167ffffffffffffffff8111838210176101125760a09183916040528101031261010e576100f48161004d565b5061010660806020830151920161004d565b50903861009f565b5080fd5b634e487b7160e01b84526041600452602484fd5b503d6100be565b50604051903d90823e3d90fdfea2646970667358221220b1bd7aa2da808db147a3af08889841d971198224be65a7a06366738aa3abe22f64736f6c63430008140033",
    "linkReferences": {}
  },
  "methodIdentifiers": {
    "DOMAIN_SEPARATOR()": "3644e515",
    "accumulateGasInUsdc(address,uint256)": "144915dd",
    "admin()": "f851a440",
    "chgAdmin(address)": "07951ec1",
    "eip712Domain()": "84b0196e",
    "nonces(address)": "7ecebe00",
    "permitApprove(address,uint256,bytes)": "0bebd8d5",
    "permitApproveAllNFT(address,uint256,bytes)": "bd801827",
    "permitApproveNFT(address,uint256,bytes)": "4b447502",
    "permitChgOwnerPwd(address,uint256,bytes,address,uint256,bytes)": "4562df39",
    "permitMarketSWAP(address,uint256,bytes)": "ae31bf94",
    "permitRegister(address,uint256,bytes)": "4fa50a5e",
    "permitTransferETH(address,uint256,address,uint256,bytes)": "1ff2618b",
    "permitTransferNFT(address,uint256,bytes)": "7dd1ccc9",
    "permitTransferToken(address,address,uint256,address,uint256,bytes)": "e3be05f2",
    "queryContractAddr(address,uint256,bytes)": "50c15320"
  },
  "id": 1
}